{
    "_format": "hh-sol-artifact-1",
    "contractName": "DeflationToken",
    "sourceName": "contracts/DeflationToken.sol",
    "abi": [
        {
            "inputs": [],
            "stateMutability": "nonpayable",
            "type": "constructor"
        },
        {
            "inputs": [
                {
                    "internalType": "address",
                    "name": "spender",
                    "type": "address"
                },
                {
                    "internalType": "uint256",
                    "name": "allowance",
                    "type": "uint256"
                },
                {
                    "internalType": "uint256",
                    "name": "needed",
                    "type": "uint256"
                }
            ],
            "name": "ERC20InsufficientAllowance",
            "type": "error"
        },
        {
            "inputs": [
                {
                    "internalType": "address",
                    "name": "sender",
                    "type": "address"
                },
                {
                    "internalType": "uint256",
                    "name": "balance",
                    "type": "uint256"
                },
                {
                    "internalType": "uint256",
                    "name": "needed",
                    "type": "uint256"
                }
            ],
            "name": "ERC20InsufficientBalance",
            "type": "error"
        },
        {
            "inputs": [
                {
                    "internalType": "address",
                    "name": "approver",
                    "type": "address"
                }
            ],
            "name": "ERC20InvalidApprover",
            "type": "error"
        },
        {
            "inputs": [
                {
                    "internalType": "address",
                    "name": "receiver",
                    "type": "address"
                }
            ],
            "name": "ERC20InvalidReceiver",
            "type": "error"
        },
        {
            "inputs": [
                {
                    "internalType": "address",
                    "name": "sender",
                    "type": "address"
                }
            ],
            "name": "ERC20InvalidSender",
            "type": "error"
        },
        {
            "inputs": [
                {
                    "internalType": "address",
                    "name": "spender",
                    "type": "address"
                }
            ],
            "name": "ERC20InvalidSpender",
            "type": "error"
        },
        {
            "anonymous": false,
            "inputs": [
                {
                    "indexed": true,
                    "internalType": "address",
                    "name": "owner",
                    "type": "address"
                },
                {
                    "indexed": true,
                    "internalType": "address",
                    "name": "spender",
                    "type": "address"
                },
                {
                    "indexed": false,
                    "internalType": "uint256",
                    "name": "value",
                    "type": "uint256"
                }
            ],
            "name": "Approval",
            "type": "event"
        },
        {
            "anonymous": false,
            "inputs": [
                {
                    "indexed": true,
                    "internalType": "address",
                    "name": "from",
                    "type": "address"
                },
                {
                    "indexed": true,
                    "internalType": "address",
                    "name": "to",
                    "type": "address"
                },
                {
                    "indexed": false,
                    "internalType": "uint256",
                    "name": "value",
                    "type": "uint256"
                }
            ],
            "name": "Transfer",
            "type": "event"
        },
        {
            "inputs": [],
            "name": "ONE",
            "outputs": [
                {
                    "internalType": "uint256",
                    "name": "",
                    "type": "uint256"
                }
            ],
            "stateMutability": "view",
            "type": "function"
        },
        {
            "inputs": [
                {
                    "internalType": "address",
                    "name": "owner",
                    "type": "address"
                },
                {
                    "internalType": "address",
                    "name": "spender",
                    "type": "address"
                }
            ],
            "name": "allowance",
            "outputs": [
                {
                    "internalType": "uint256",
                    "name": "",
                    "type": "uint256"
                }
            ],
            "stateMutability": "view",
            "type": "function"
        },
        {
            "inputs": [
                {
                    "internalType": "address",
                    "name": "spender",
                    "type": "address"
                },
                {
                    "internalType": "uint256",
                    "name": "value",
                    "type": "uint256"
                }
            ],
            "name": "approve",
            "outputs": [
                {
                    "internalType": "bool",
                    "name": "",
                    "type": "bool"
                }
            ],
            "stateMutability": "nonpayable",
            "type": "function"
        },
        {
            "inputs": [
                {
                    "internalType": "address",
                    "name": "account",
                    "type": "address"
                }
            ],
            "name": "balanceOf",
            "outputs": [
                {
                    "internalType": "uint256",
                    "name": "",
                    "type": "uint256"
                }
            ],
            "stateMutability": "view",
            "type": "function"
        },
        {
            "inputs": [],
            "name": "decimals",
            "outputs": [
                {
                    "internalType": "uint8",
                    "name": "",
                    "type": "uint8"
                }
            ],
            "stateMutability": "view",
            "type": "function"
        },
        {
            "inputs": [
                {
                    "internalType": "uint256",
                    "name": "amount",
                    "type": "uint256"
                }
            ],
            "name": "faucet",
            "outputs": [
                {
                    "internalType": "bool",
                    "name": "",
                    "type": "bool"
                }
            ],
            "stateMutability": "nonpayable",
            "type": "function"
        },
        {
            "inputs": [],
            "name": "name",
            "outputs": [
                {
                    "internalType": "string",
                    "name": "",
                    "type": "string"
                }
            ],
            "stateMutability": "view",
            "type": "function"
        },
        {
            "inputs": [],
            "name": "rebase",
            "outputs": [],
            "stateMutability": "nonpayable",
            "type": "function"
        },
        {
            "inputs": [],
            "name": "symbol",
            "outputs": [
                {
                    "internalType": "string",
                    "name": "",
                    "type": "string"
                }
            ],
            "stateMutability": "view",
            "type": "function"
        },
        {
            "inputs": [],
            "name": "totalSupply",
            "outputs": [
                {
                    "internalType": "uint256",
                    "name": "",
                    "type": "uint256"
                }
            ],
            "stateMutability": "view",
            "type": "function"
        },
        {
            "inputs": [
                {
                    "internalType": "address",
                    "name": "to",
                    "type": "address"
                },
                {
                    "internalType": "uint256",
                    "name": "amount",
                    "type": "uint256"
                }
            ],
            "name": "transfer",
            "outputs": [
                {
                    "internalType": "bool",
                    "name": "",
                    "type": "bool"
                }
            ],
            "stateMutability": "nonpayable",
            "type": "function"
        },
        {
            "inputs": [
                {
                    "internalType": "address",
                    "name": "from",
                    "type": "address"
                },
                {
                    "internalType": "address",
                    "name": "to",
                    "type": "address"
                },
                {
                    "internalType": "uint256",
                    "name": "value",
                    "type": "uint256"
                }
            ],
            "name": "transferFrom",
            "outputs": [
                {
                    "internalType": "bool",
                    "name": "",
                    "type": "bool"
                }
            ],
            "stateMutability": "nonpayable",
            "type": "function"
        }
    ],
    "bytecode": "0x6080604052670de0b6b3a76400006006556006546007553480156200002357600080fd5b506040518060400160405280600781526020017f6e657720555344000000000000000000000000000000000000000000000000008152506040518060400160405280600181526020017f24000000000000000000000000000000000000000000000000000000000000008152508160039081620000a191906200061e565b508060049081620000b391906200061e565b505050620000da3360065462989680620000ce919062000734565b620000e760201b60201c565b4260058190555062000887565b600073ffffffffffffffffffffffffffffffffffffffff168273ffffffffffffffffffffffffffffffffffffffff16036200015c5760006040517fec442f05000000000000000000000000000000000000000000000000000000008152600401620001539190620007c4565b60405180910390fd5b62000170600083836200017460201b60201c565b5050565b600073ffffffffffffffffffffffffffffffffffffffff168373ffffffffffffffffffffffffffffffffffffffff1603620001ca578060026000828254620001bd9190620007e1565b92505081905550620002a0565b60008060008573ffffffffffffffffffffffffffffffffffffffff1673ffffffffffffffffffffffffffffffffffffffff1681526020019081526020016000205490508181101562000259578381836040517fe450d38c00000000000000000000000000000000000000000000000000000000815260040162000250939291906200082d565b60405180910390fd5b8181036000808673ffffffffffffffffffffffffffffffffffffffff1673ffffffffffffffffffffffffffffffffffffffff16815260200190815260200160002081905550505b600073ffffffffffffffffffffffffffffffffffffffff168273ffffffffffffffffffffffffffffffffffffffff1603620002eb578060026000828254039250508190555062000338565b806000808473ffffffffffffffffffffffffffffffffffffffff1673ffffffffffffffffffffffffffffffffffffffff168152602001908152602001600020600082825401925050819055505b8173ffffffffffffffffffffffffffffffffffffffff168373ffffffffffffffffffffffffffffffffffffffff167fddf252ad1be2c89b69c2b068fc378daa952ba7f163c4a11628f55a4df523b3ef836040516200039791906200086a565b60405180910390a3505050565b600081519050919050565b7f4e487b7100000000000000000000000000000000000000000000000000000000600052604160045260246000fd5b7f4e487b7100000000000000000000000000000000000000000000000000000000600052602260045260246000fd5b600060028204905060018216806200042657607f821691505b6020821081036200043c576200043b620003de565b5b50919050565b60008190508160005260206000209050919050565b60006020601f8301049050919050565b600082821b905092915050565b600060088302620004a67fffffffffffffffffffffffffffffffffffffffffffffffffffffffffffffffff8262000467565b620004b2868362000467565b95508019841693508086168417925050509392505050565b6000819050919050565b6000819050919050565b6000620004ff620004f9620004f384620004ca565b620004d4565b620004ca565b9050919050565b6000819050919050565b6200051b83620004de565b620005336200052a8262000506565b84845462000474565b825550505050565b600090565b6200054a6200053b565b6200055781848462000510565b505050565b5b818110156200057f576200057360008262000540565b6001810190506200055d565b5050565b601f821115620005ce57620005988162000442565b620005a38462000457565b81016020851015620005b3578190505b620005cb620005c28562000457565b8301826200055c565b50505b505050565b600082821c905092915050565b6000620005f360001984600802620005d3565b1980831691505092915050565b60006200060e8383620005e0565b9150826002028217905092915050565b6200062982620003a4565b67ffffffffffffffff811115620006455762000644620003af565b5b6200065182546200040d565b6200065e82828562000583565b600060209050601f83116001811462000696576000841562000681578287015190505b6200068d858262000600565b865550620006fd565b601f198416620006a68662000442565b60005b82811015620006d057848901518255600182019150602085019450602081019050620006a9565b86831015620006f05784890151620006ec601f891682620005e0565b8355505b6001600288020188555050505b505050505050565b7f4e487b7100000000000000000000000000000000000000000000000000000000600052601160045260246000fd5b60006200074182620004ca565b91506200074e83620004ca565b92508282026200075e81620004ca565b9150828204841483151762000778576200077762000705565b5b5092915050565b600073ffffffffffffffffffffffffffffffffffffffff82169050919050565b6000620007ac826200077f565b9050919050565b620007be816200079f565b82525050565b6000602082019050620007db6000830184620007b3565b92915050565b6000620007ee82620004ca565b9150620007fb83620004ca565b925082820190508082111562000816576200081562000705565b5b92915050565b6200082781620004ca565b82525050565b6000606082019050620008446000830186620007b3565b6200085360208301856200081c565b6200086260408301846200081c565b949350505050565b60006020820190506200088160008301846200081c565b92915050565b61117780620008976000396000f3fe608060405234801561001057600080fd5b50600436106100b45760003560e01c806370a082311161007157806370a08231146101a357806395d89b41146101d3578063a9059cbb146101f1578063af14052c14610221578063c2ee3a081461022b578063dd62ed3e14610249576100b4565b806306fdde03146100b9578063095ea7b3146100d757806318160ddd1461010757806323b872dd14610125578063313ce567146101555780635791589714610173575b600080fd5b6100c1610279565b6040516100ce9190610c36565b60405180910390f35b6100f160048036038101906100ec9190610cf1565b61030b565b6040516100fe9190610d4c565b60405180910390f35b61010f61032e565b60405161011c9190610d76565b60405180910390f35b61013f600480360381019061013a9190610d91565b610357565b60405161014c9190610d4c565b60405180910390f35b61015d610386565b60405161016a9190610e00565b60405180910390f35b61018d60048036038101906101889190610e1b565b61038f565b60405161019a9190610d4c565b60405180910390f35b6101bd60048036038101906101b89190610e48565b6103f0565b6040516101ca9190610d76565b60405180910390f35b6101db61041c565b6040516101e89190610c36565b60405180910390f35b61020b60048036038101906102069190610cf1565b6104ae565b6040516102189190610d4c565b60405180910390f35b6102296104ed565b005b610233610529565b6040516102409190610d76565b60405180910390f35b610263600480360381019061025e9190610e75565b61052f565b6040516102709190610d76565b60405180910390f35b60606003805461028890610ee4565b80601f01602080910402602001604051908101604052809291908181526020018280546102b490610ee4565b80156103015780601f106102d657610100808354040283529160200191610301565b820191906000526020600020905b8154815290600101906020018083116102e457829003601f168201915b5050505050905090565b6000806103166105b6565b90506103238185856105be565b600191505092915050565b600060065460075461033e6105d0565b6103489190610f44565b6103529190610fb5565b905090565b6000806103626105b6565b905061036f8582856105da565b61037a85858561066e565b60019150509392505050565b60006012905090565b60008161039b306103f0565b10156103dc576040517f08c379a00000000000000000000000000000000000000000000000000000000081526004016103d390611058565b60405180910390fd5b6103e730338461066e565b60019050919050565b600060065460075461040184610762565b61040b9190610f44565b6104159190610fb5565b9050919050565b60606004805461042b90610ee4565b80601f016020809104026020016040519081016040528092919081815260200182805461045790610ee4565b80156104a45780601f10610479576101008083540402835291602001916104a4565b820191906000526020600020905b81548152906001019060200180831161048757829003601f168201915b5050505050905090565b60006104b86104ed565b6000600654600754846104cb9190610f44565b6104d59190610fb5565b90506104e233858361066e565b600191505092915050565b6301e13380600554426105009190611078565b1061052757606460636007546105169190610f44565b6105209190610fb5565b6007819055505b565b60065481565b6000600160008473ffffffffffffffffffffffffffffffffffffffff1673ffffffffffffffffffffffffffffffffffffffff16815260200190815260200160002060008373ffffffffffffffffffffffffffffffffffffffff1673ffffffffffffffffffffffffffffffffffffffff16815260200190815260200160002054905092915050565b600033905090565b6105cb83838360016107aa565b505050565b6000600254905090565b60006105e6848461052f565b90507fffffffffffffffffffffffffffffffffffffffffffffffffffffffffffffffff81146106685781811015610658578281836040517ffb8f41b200000000000000000000000000000000000000000000000000000000815260040161064f939291906110bb565b60405180910390fd5b610667848484840360006107aa565b5b50505050565b600073ffffffffffffffffffffffffffffffffffffffff168373ffffffffffffffffffffffffffffffffffffffff16036106e05760006040517f96c6fd1e0000000000000000000000000000000000000000000000000000000081526004016106d791906110f2565b60405180910390fd5b600073ffffffffffffffffffffffffffffffffffffffff168273ffffffffffffffffffffffffffffffffffffffff16036107525760006040517fec442f0500000000000000000000000000000000000000000000000000000000815260040161074991906110f2565b60405180910390fd5b61075d838383610981565b505050565b60008060008373ffffffffffffffffffffffffffffffffffffffff1673ffffffffffffffffffffffffffffffffffffffff168152602001908152602001600020549050919050565b600073ffffffffffffffffffffffffffffffffffffffff168473ffffffffffffffffffffffffffffffffffffffff160361081c5760006040517fe602df0500000000000000000000000000000000000000000000000000000000815260040161081391906110f2565b60405180910390fd5b600073ffffffffffffffffffffffffffffffffffffffff168373ffffffffffffffffffffffffffffffffffffffff160361088e5760006040517f94280d6200000000000000000000000000000000000000000000000000000000815260040161088591906110f2565b60405180910390fd5b81600160008673ffffffffffffffffffffffffffffffffffffffff1673ffffffffffffffffffffffffffffffffffffffff16815260200190815260200160002060008573ffffffffffffffffffffffffffffffffffffffff1673ffffffffffffffffffffffffffffffffffffffff16815260200190815260200160002081905550801561097b578273ffffffffffffffffffffffffffffffffffffffff168473ffffffffffffffffffffffffffffffffffffffff167f8c5be1e5ebec7d5bd14f71427d1e84f3dd0314c0f7b2291e5b200ac8c7c3b925846040516109729190610d76565b60405180910390a35b50505050565b600073ffffffffffffffffffffffffffffffffffffffff168373ffffffffffffffffffffffffffffffffffffffff16036109d35780600260008282546109c7919061110d565b92505081905550610aa6565b60008060008573ffffffffffffffffffffffffffffffffffffffff1673ffffffffffffffffffffffffffffffffffffffff16815260200190815260200160002054905081811015610a5f578381836040517fe450d38c000000000000000000000000000000000000000000000000000000008152600401610a56939291906110bb565b60405180910390fd5b8181036000808673ffffffffffffffffffffffffffffffffffffffff1673ffffffffffffffffffffffffffffffffffffffff16815260200190815260200160002081905550505b600073ffffffffffffffffffffffffffffffffffffffff168273ffffffffffffffffffffffffffffffffffffffff1603610aef5780600260008282540392505081905550610b3c565b806000808473ffffffffffffffffffffffffffffffffffffffff1673ffffffffffffffffffffffffffffffffffffffff168152602001908152602001600020600082825401925050819055505b8173ffffffffffffffffffffffffffffffffffffffff168373ffffffffffffffffffffffffffffffffffffffff167fddf252ad1be2c89b69c2b068fc378daa952ba7f163c4a11628f55a4df523b3ef83604051610b999190610d76565b60405180910390a3505050565b600081519050919050565b600082825260208201905092915050565b60005b83811015610be0578082015181840152602081019050610bc5565b60008484015250505050565b6000601f19601f8301169050919050565b6000610c0882610ba6565b610c128185610bb1565b9350610c22818560208601610bc2565b610c2b81610bec565b840191505092915050565b60006020820190508181036000830152610c508184610bfd565b905092915050565b600080fd5b600073ffffffffffffffffffffffffffffffffffffffff82169050919050565b6000610c8882610c5d565b9050919050565b610c9881610c7d565b8114610ca357600080fd5b50565b600081359050610cb581610c8f565b92915050565b6000819050919050565b610cce81610cbb565b8114610cd957600080fd5b50565b600081359050610ceb81610cc5565b92915050565b60008060408385031215610d0857610d07610c58565b5b6000610d1685828601610ca6565b9250506020610d2785828601610cdc565b9150509250929050565b60008115159050919050565b610d4681610d31565b82525050565b6000602082019050610d616000830184610d3d565b92915050565b610d7081610cbb565b82525050565b6000602082019050610d8b6000830184610d67565b92915050565b600080600060608486031215610daa57610da9610c58565b5b6000610db886828701610ca6565b9350506020610dc986828701610ca6565b9250506040610dda86828701610cdc565b9150509250925092565b600060ff82169050919050565b610dfa81610de4565b82525050565b6000602082019050610e156000830184610df1565b92915050565b600060208284031215610e3157610e30610c58565b5b6000610e3f84828501610cdc565b91505092915050565b600060208284031215610e5e57610e5d610c58565b5b6000610e6c84828501610ca6565b91505092915050565b60008060408385031215610e8c57610e8b610c58565b5b6000610e9a85828601610ca6565b9250506020610eab85828601610ca6565b9150509250929050565b7f4e487b7100000000000000000000000000000000000000000000000000000000600052602260045260246000fd5b60006002820490506001821680610efc57607f821691505b602082108103610f0f57610f0e610eb5565b5b50919050565b7f4e487b7100000000000000000000000000000000000000000000000000000000600052601160045260246000fd5b6000610f4f82610cbb565b9150610f5a83610cbb565b9250828202610f6881610cbb565b91508282048414831517610f7f57610f7e610f15565b5b5092915050565b7f4e487b7100000000000000000000000000000000000000000000000000000000600052601260045260246000fd5b6000610fc082610cbb565b9150610fcb83610cbb565b925082610fdb57610fda610f86565b5b828204905092915050565b7f496e73756666696369656e742062616c616e636520696e20666175636574206660008201527f6f72207769746864726177207265717565737400000000000000000000000000602082015250565b6000611042603383610bb1565b915061104d82610fe6565b604082019050919050565b6000602082019050818103600083015261107181611035565b9050919050565b600061108382610cbb565b915061108e83610cbb565b92508282039050818111156110a6576110a5610f15565b5b92915050565b6110b581610c7d565b82525050565b60006060820190506110d060008301866110ac565b6110dd6020830185610d67565b6110ea6040830184610d67565b949350505050565b600060208201905061110760008301846110ac565b92915050565b600061111882610cbb565b915061112383610cbb565b925082820190508082111561113b5761113a610f15565b5b9291505056fea2646970667358221220c73ea9e6bbca4ae771547430e6a03beb2338abd84ec632575fdc7972d0c17e8464736f6c63430008140033",
    "linkReferences": {},
    "deployedLinkReferences": {}
}